:1000000007C1000033C1000031C100002FC1000052
:100010002DC100002BC1000029C1000027C1000034
:1000200025C1000023C1000021C100001FC1000044
:100030001DC100001BC1000019C1000017C1000054
:1000400015C1000013C1000011C100000FC1000064
:100050000DC100000BC1000009C1000071C4000007
:1000600005C1000044C4000019C40000FFC0000026
:10007000FDC00000FBC00000F9C00000F7C0000098
:10008000F5C00000F3C00000F1C00000EFC00000A8
:10009000EDC00000EBC00000E9C00000E7C00000B8
:1000A000E5C00000E3C00000E1C00000DFC00000C8
:1000B000DDC00000DBC00000D9C00000D7C00000D8
:1000C000D5C00000D3C00000D1C00000CFC00000E8
:1000D000CDC00000CBC00000B8C300008DC300003D
:1000E000C5C00000C701CA01B901BD01C1010102BB
:1000F000CE01D201D801DC01E001E601EA01EE0106
:100100000102F401F801FC01000021002400270095
:100110002A002D0030003300010100000401070116
:100120000A0100002200250028002B002E003100CB
:10013000340002010000050108010B010505050559
:10014000070508080808020202020A0A080804044F
:10015000040401010101010101010303030303037D
:100160000303040707070C0C0C0C0C0C0C0C02020C
:10017000020206060606060606060B0B0B0B0B0B09
:100180000B0B010210202008081020401020408096
:10019000020102010804020101020408102040804B
:1001A00080402010080402018004020180402010D9
:1001B0000804020108040201010204081020408022
:1001C000010204081020408000000A0B02090C0DF7
:1001D0000E080703040100000000000000000000FA
:1001E000000000000000000000000000000000000F
:1001F00000000000121110000000000000000000CC
:100200000000000000000000000000000000EA0400
:1002100011241FBECFEFD1E2DEBFCDBF00E00CBF87
:1002200012E0A0E0B2E0ECE4FEE000E00BBF02C0B0
:1002300007900D92A038B107D9F724E0A0E8B2E00A
:1002400001C01D92A831B207E1F711E0C8E0D1E08A
:1002500000E005C021970109802FFE01C7D5C730F6
:10026000D10780E00807B1F71AD4EEC5C9CECF9206
:10027000DF92EF92FF920F931F93CF93DF93EC01E6
:100280006A017B01E889F98982E080834115514E3A
:1002900061057105A9F060E079E08DE390E0A701C8
:1002A0009601B0D589019A0101501109210931093E
:1002B0003695279517950795980101151041A0F0DF
:1002C000E889F989108260E874E88EE190E0A7017E
:1002D000960198D5DA01C9010197A109B109B6952E
:1002E000A795979587959C01EC85FD853083EE85D4
:1002F000FF852083188EEC89FD8986E08083EA895A
:10030000FB89808180618083EA89FB8980818860A4
:100310008083EA89FB89808180688083EA89FB8900
:1003200080818F7D8083DF91CF911F910F91FF900E
:10033000EF90DF90CF900895CF93C82FE5EDF1E0D7
:100340004491EFE8F1E02491E9E4F1E094919923FC
:1003500009F46AC0442309F454C050E0FA0131970B
:10036000E231F10508F04DC08827EE58FF4F8F4F5E
:100370003DC5809180008F7707C0809180008F7D80
:1003800003C080918000877F809380003AC084B54D
:100390008F7702C084B58F7D84BD33C08091B0005B
:1003A0008F7703C08091B0008F7D8093B00029C00B
:1003B000809190008F7707C0809190008F7D03C05F
:1003C00080919000877F809390001BC08091A00057
:1003D0008F7707C08091A0008F7D03C08091A0001F
:1003E000877F8093A0000DC0309120013F7707C028
:1003F000309120013F7D03C030912001377F309341
:100400002001E92FF0E0EE0FFF1FEE5DFE4FA591FA
:10041000B4918FB7F894EC91C11103C020952E23AD
:1004200001C02E2B2C938FBFCF910895CF92DF92D6
:10043000EF92FF920F931F93CF93DF936C017A019A
:100440008B01C0E0D0E0CE15DF0589F0D8016D91B9
:100450008D01D601ED91FC910190F081E02DC60156
:100460001995892B11F47E0102C02196ECCFC701AA
:10047000DF91CF911F910F91FF90EF90DF90CF9080
:100480000895FC01A089B1898C91A689B78982FD64
:100490000FC09C91818D8F5F8F73228D821749F0E1
:1004A000218DDF01A20FB11D5D969C93818F089570
:1004B0008C910895FC01918D828D981761F0828D49
:1004C000DF01A80FB11D5D968C91928D9F5F9F7388
:1004D000928F90E008958FEF9FEF0895FC01918D2A
:1004E000828D981731F0828DE80FF11D858D90E097
:1004F00008958FEF9FEF0895FC01918D228D892F34
:1005000090E0805C9F4F821B91098F73992708951B
:1005100086E992E0F1DF21E0892B09F420E0822FC7
:10052000089583E393E0E8DF21E0892B09F420E0DC
:10053000822F0895FC01848DDF01A80FB11DA35AFD
:10054000BF4F2C91848D90E001968F739927848FF3
:10055000A689B7892C93A089B1898C9180648C93EA
:10056000938D848D981306C00288F389E02D8081D5
:100570008F7D80830895EF92FF920F931F93CF9307
:10058000DF93EC0181E0888F9B8D8C8D981305C0E3
:10059000E889F989808185FD23C0F62E0B8D10E056
:1005A0000F5F1F4F0F731127E02E8C8DE8120BC0C9
:1005B0000FB607FCFACFE889F989808185FFF5CF6E
:1005C000CE01B8DFF2CF8B8DFE01E80FF11DE35AAB
:1005D000FF4FF0820B8FEA89FB898081806207C020
:1005E000EE89FF896083E889F9898081806480834E
:1005F00081E090E0DF91CF911F910F91FF90EF90FC
:100600000895CF93DF93EC01888D8823C1F0EA89A8
:10061000FB89808185FD05C0A889B9898C9186FDFB
:100620000EC00FB607FCF5CF808185FFF2CFA889F9
:10063000B9898C9185FFEDCFCE017CDFE8CFDF91CA
:10064000CF910895CF93C1E086E992E055DF892BE1
:1006500001F186E992E02EDF853C19F4C093810216
:10066000F3CF90918102992379F38C3539F410926C
:100670008102C093950210928002E6CF9091800291
:10068000E92FF0E0E557FD4F80839F5F9093800254
:10069000DBCFCF91089580E090E0892B19F041DF06
:1006A00081111CC080E090E0892B41F080E090E057
:1006B000892B21F00E940000811113C080E090E09E
:1006C000892B41F080E090E0892B21F00E9400000E
:1006D00081110AC01DDF81110AC008950E94000027
:1006E000E1CF0E940000EACF0E940000F3CFAACF22
:1006F0003FB7F8948091830290918402A091850283
:10070000B091860226B5A89B05C02F3F19F001962F
:10071000A11DB11D3FBFBA2FA92F982F8827820F87
:10072000911DA11DB11DBC01CD0142E0660F771FD7
:10073000881F991F4A95D1F708958F929F92AF9283
:10074000BF92CF92DF92EF92FF926B017C01D0DFDC
:100750004B015C01C114D104E104F104E9F0C8DFEC
:10076000DC01CB0188199909AA09BB09883E93408D
:10077000A105B10578F321E0C21AD108E108F1081A
:1007800088EE880E83E0981EA11CB11CC114D10410
:10079000E104F10421F7DECFFF90EF90DF90CF90DE
:1007A000BF90AF909F908F90089528D361157105E9
:1007B00079F0FB0101900020E9F73197AF01461B6A
:1007C000570BDC01ED91FC910280F381E02D19942F
:1007D00080E090E00895CF93DF93BC0183E393E042
:1007E000E5DFEC0160E372E083E393E0DFDF8C0F91
:1007F0009D1FDF91CF9108951F920F920FB60F9218
:1008000011240BB60F922F933F934F935F936F93E7
:100810007F938F939F93AF93BF93EF93FF9386E95B
:1008200092E088DEFF91EF91BF91AF919F918F9100
:100830007F916F915F914F913F912F910F900BBEE0
:100840000F900FBE0F901F9018951F920F920FB62A
:100850000F9211240BB60F922F933F934F935F93F8
:100860006F937F938F939F93AF93BF93EF93FF9378
:1008700086E992E006DEFF91EF91BF91AF919F91E3
:100880008F917F916F915F914F913F912F910F9039
:100890000BBE0F900FBE0F901F9018951F920F92D6
:1008A0000FB60F9211240BB60F922F933F934F93D5
:1008B0005F936F937F938F939F93AF93BF93EF93C8
:1008C000FF9383E393E036DEFF91EF91BF91AF9109
:1008D0009F918F917F916F915F914F913F912F9158
:1008E0000F900BBE0F900FBE0F901F9018951F9288
:1008F0000F920FB60F9211240BB60F922F933F93C6
:100900004F935F936F937F938F939F93AF93BF9317
:10091000EF93FF9383E393E0B4DDFF91EF91BF91F9
:10092000AF919F918F917F916F915F914F913F9187
:100930002F910F900BBE0F900FBE0F901F90189528
:100940001F920F920FB60F9211242F933F938F9304
:100950009F93AF93BF938091870290918802A0915B
:100960008902B0918A023091820223E0230F2D3751
:1009700020F40196A11DB11D05C026E8230F0296A3
:10098000A11DB11D2093820280938702909388025B
:10099000A0938902B0938A0280918302909184028D
:1009A000A0918502B09186020196A11DB11D809390
:1009B000830290938402A0938502B0938602BF9134
:1009C000AF919F918F913F912F910F900FBE0F90FC
:1009D0001F901895E6E9F2E01382128248EE53E088
:1009E00060E070E0448355836683778385E192E01D
:1009F0009183808325E331E03587248724E331E048
:100A00003787268720E331E0318B208B21E331E0EB
:100A1000338B228B22E331E0358B248B26E331E0CC
:100A2000378B268B118E128E138E148EE3E3F3E038
:100A300013821282448355836683778391838083F4
:100A400085EC90E09587848784EC90E09787868793
:100A500080EC90E0918B808B81EC90E0938B828B8B
:100A600082EC90E0958B848B86EC90E0978B868B64
:100A7000118E128E138E148EE0EDF3E01682178223
:100A8000108611861286138614861586168617869A
:100A9000108A118A128A138A148A158A0895CF93AC
:100AA000DF93CDB7DEB7A7970FB6F894DEBF0FBEC2
:100AB000CDBF789484B5826084BD84B5816084BDE7
:100AC00085B5826085BD85B5816085BD80916E00EC
:100AD000816080936E00109281008091810082601D
:100AE000809381008091810081608093810080915A
:100AF00080008160809380008091B1008460809349
:100B0000B1008091B00081608093B000809191002D
:100B10008260809391008091910081608093910028
:100B2000809190008160809390008091A10082600C
:100B30008093A1008091A10081608093A1008091A9
:100B4000A00081608093A000809121018260809349
:100B500021018091210181608093210180912001F8
:100B600081608093200180917A00846080937A0074
:100B700080917A00826080937A0080917A0081600F
:100B800080937A0080917A00806880937A00109236
:100B9000C1001092140410921504109216041092C1
:100BA00017041092D2031092D3031092D403109220
:100BB000D50360ED77E080E090E0BFDD83E393E074
:100BC000909313048093120440E051EE60E070E0D3
:100BD0004EDB2FB7F8948091870290918802A09104
:100BE0008902B0918A022FBF8093D2039093D303DE
:100BF000A093D403B093D50361E272E08091120414
:100C000090911304D3DD6AE070E080E090E095DD20
:100C100081E08093E60340E051EE60E070E083E322
:100C200093E025DBEFE8F1E02491E9E4F1E0849141
:100C3000882399F090E0880F991FFC01E85FFE4F30
:100C4000A591B491FC01EE5DFE4F859194918FB713
:100C5000F894EC91E22BEC938FBF81E06DDB68EEB2
:100C600073E080E090E069DD80E066DB83E392E0A2
:100C7000B2DD40E659E060E070E086E992E0F7DA44
:100C80002AE0422E512C612C712C35E0832E7E01FE
:100C900082E2E80EF11C41E1942E8E010F5F1F4F9E
:100CA0005DE0352E81E048DB64E670E080E090E0B6
:100CB00044DD80E041DB80919502882309F494C0F3
:100CC00068E472E083E393E071DD9BE8C92E92E073
:100CD000D92EF60121916F0130E040E050E019A2D9
:100CE000CE0181965C01CA01B901A30192018AD0AB
:100CF000605DF50162935F012115310541055105E4
:100D000091F7BF0183E393E051DD68E572E083E38F
:100D100093E04CDDF5E9CF16F2E0DF06D1F682E391
:100D200092E059DDA0908B02CA2CD12C84E0D5949E
:100D3000C7948A95E1F7B0908E0220918F02F70157
:100D4000882D11928A95E9F78FEF8C0D843098F0F9
:100D5000E0E0F2E0D801892D01900D928A95E1F74B
:100D600041E150E0B80186E992E02FA35FDB2FA1BB
:100D70002F3F69F40EC0A0E9B2E0F701C7018C0D66
:100D80009D1DE817F90721F33D913193FACF2336E2
:100D900049F5A0FE27C0CA94CD2821F58AA181116A
:100DA00021C08AE592E017DDF801832D11928A9522
:100DB000E9F78AEA89838A838B8385EC8C838CE5C7
:100DC0008B878AE38C878D879D8280EF8E8383E675
:100DD0008887B98681E08A874DE050E0B80186E9CE
:100DE00092E024DB1092950256DC5CCFEE0FFF1FE1
:100DF000881F8BBF0790F691E02D199481E090E059
:100E0000F89422C0A1E21A2EAA1BBB1BFD010DC043
:100E1000AA1FBB1FEE1FFF1FA217B307E407F507AA
:100E200020F0A21BB30BE40BF50B661F771F881F86
:100E3000991F1A9469F760957095809590959B011C
:0C0E4000AC01BD01CF010895F894FFCF74
:100E4C00AAAAAAC5000000000000000000005C3A3D
:100E5C003A00000000BB0216027C025A026E02012C
:100E6C0003564D4450565F317C315F564D445056BD
:100E7C000D0A004D65676120726164696F207465AD
:100E8C00737420696E697400726563656976656454
:100E9C00207061636B65743A2000526563656976F6
:100EAC0065642070696E67207061636B6574207473
:100EBC006F206D652C2073656E6420706F6E6700FB
:00000001FF
