:1000000007C1000033C1000031C100002FC1000052
:100010002DC100002BC1000029C1000027C1000034
:1000200025C1000023C1000021C100001FC1000044
:100030001DC100001BC1000019C1000017C1000054
:1000400015C1000013C1000011C100000FC1000064
:100050000DC100000BC1000009C10000CDC40000AB
:1000600005C10000A0C4000075C40000FFC000006E
:10007000FDC00000FBC00000F9C00000F7C0000098
:10008000F5C00000F3C00000F1C00000EFC00000A8
:10009000EDC00000EBC00000E9C00000E7C00000B8
:1000A000E5C00000E3C00000E1C00000DFC00000C8
:1000B000DDC00000DBC00000D9C00000D7C00000D8
:1000C000D5C00000D3C00000D1C00000CFC00000E8
:1000D000CDC00000CBC0000014C40000E9C3000084
:1000E000C5C00000C701CA01B901BD01C1010102BB
:1000F000CE01D201D801DC01E001E601EA01EE0106
:100100000102F401F801FC01000021002400270095
:100110002A002D0030003300010100000401070116
:100120000A0100002200250028002B002E003100CB
:10013000340002010000050108010B010505050559
:10014000070508080808020202020A0A080804044F
:10015000040401010101010101010303030303037D
:100160000303040707070C0C0C0C0C0C0C0C02020C
:10017000020206060606060606060B0B0B0B0B0B09
:100180000B0B010210202008081020401020408096
:10019000020102010804020101020408102040804B
:1001A00080402010080402018004020180402010D9
:1001B0000804020108040201010204081020408022
:1001C000010204081020408000000A0B02090C0DF7
:1001D0000E080703040100000000000000000000FA
:1001E000000000000000000000000000000000000F
:1001F00000000000121110000000000000000000CC
:1002000000000000000000000000000000004605A3
:1002100011241FBECFEFD1E2DEBFCDBF00E00CBF87
:1002200012E0A0E0B2E0E6E1FFE000E00BBF02C0B8
:1002300007900D92A23CB107D9F724E0A2ECB2E0FE
:1002400001C01D92AA35B207E1F711E0C8E0D1E084
:1002500000E005C021970109802FFE012CD6C73090
:10026000D10780E00807B1F776D453C6C9CECF9244
:10027000DF92EF92FF920F931F93CF93DF93EC01E6
:100280006A017B01E889F98982E080834115514E3A
:1002900061057105A9F060E079E08DE390E0A701C8
:1002A000960115D689019A010150110921093109D8
:1002B0003695279517950795980101151041A0F0DF
:1002C000E889F989108260E874E88EE190E0A7017E
:1002D0009601FDD5DA01C9010197A109B109B695C9
:1002E000A795979587959C01EC85FD853083EE85D4
:1002F000FF852083188EEC89FD8986E08083EA895A
:10030000FB89808180618083EA89FB8980818860A4
:100310008083EA89FB89808180688083EA89FB8900
:1003200080818F7D8083DF91CF911F910F91FF900E
:10033000EF90DF90CF900895CF93C82FE5EDF1E0D7
:100340004491EFE8F1E02491E9E4F1E094919923FC
:1003500009F46AC0442309F454C050E0FA0131970B
:10036000E231F10508F04DC08827EE58FF4F8F4F5E
:10037000A2C5809180008F7707C0809180008F7D1B
:1003800003C080918000877F809380003AC084B54D
:100390008F7702C084B58F7D84BD33C08091B0005B
:1003A0008F7703C08091B0008F7D8093B00029C00B
:1003B000809190008F7707C0809190008F7D03C05F
:1003C00080919000877F809390001BC08091A00057
:1003D0008F7707C08091A0008F7D03C08091A0001F
:1003E000877F8093A0000DC0309120013F7707C028
:1003F000309120013F7D03C030912001377F309341
:100400002001E92FF0E0EE0FFF1FEE5DFE4FA591FA
:10041000B4918FB7F894EC91C11103C020952E23AD
:1004200001C02E2B2C938FBFCF910895CF92DF92D6
:10043000EF92FF920F931F93CF93DF936C017A019A
:100440008B01C0E0D0E0CE15DF0589F0D8016D91B9
:100450008D01D601ED91FC910190F081E02DC60156
:100460001995892B11F47E0102C02196ECCFC701AA
:10047000DF91CF911F910F91FF90EF90DF90CF9080
:100480000895FC01A089B1898C91A689B78982FD64
:100490000FC09C91818D8F5F8F73228D821749F0E1
:1004A000218DDF01A20FB11D5D969C93818F089570
:1004B0008C910895FC01918D828D981761F0828D49
:1004C000DF01A80FB11D5D968C91928D9F5F9F7388
:1004D000928F90E008958FEF9FEF0895FC01918D2A
:1004E000828D981731F0828DE80FF11D858D90E097
:1004F00008958FEF9FEF0895FC01918D228D892F34
:1005000090E0805C9F4F821B91098F73992708951B
:1005100088ED92E0F1DF21E0892B09F420E0822FC1
:10052000089585E793E0E8DF21E0892B09F420E0D6
:10053000822F0895FC01848DDF01A80FB11DA35AFD
:10054000BF4F2C91848D90E001968F739927848FF3
:10055000A689B7892C93A089B1898C9180648C93EA
:10056000938D848D981306C00288F389E02D8081D5
:100570008F7D80830895EF92FF920F931F93CF9307
:10058000DF93EC0181E0888F9B8D8C8D981305C0E3
:10059000E889F989808185FD23C0F62E0B8D10E056
:1005A0000F5F1F4F0F731127E02E8C8DE8120BC0C9
:1005B0000FB607FCFACFE889F989808185FFF5CF6E
:1005C000CE01B8DFF2CF8B8DFE01E80FF11DE35AAB
:1005D000FF4FF0820B8FEA89FB898081806207C020
:1005E000EE89FF896083E889F9898081806480834E
:1005F00081E090E0DF91CF911F910F91FF90EF90FC
:100600000895CF93DF93EC01888D8823C1F0EA89A8
:10061000FB89808185FD05C0A889B9898C9186FDFB
:100620000EC00FB607FCF5CF808185FFF2CFA889F9
:10063000B9898C9185FFEDCFCE017CDFE8CFDF91CA
:10064000CF910895CF93C1E088ED92E055DF892BDB
:1006500001F188ED92E02EDF853C19F4C093C302CE
:10066000F3CF9091C302992379F38C3539F410922A
:10067000C302C093D7021092C202E6CF9091C20289
:10068000E92FF0E0E353FD4F80839F5F9093C20218
:10069000DBCFCF91089580E090E0892B19F041DF06
:1006A00081111CC080E090E0892B41F080E090E057
:1006B000892B21F00E940000811113C080E090E09E
:1006C000892B41F080E090E0892B21F00E9400000E
:1006D00081110AC01DDF81110AC008950E94000027
:1006E000E1CF0E940000EACF0E940000F3CFAACF22
:1006F0003FB7F8948091C5029091C602A091C702BD
:10070000B091C80226B5A89B05C02F3F19F00196ED
:10071000A11DB11D3FBFBA2FA92F982F8827820F87
:10072000911DA11DB11DBC01CD0142E0660F771FD7
:10073000881F991F4A95D1F708958F929F92AF9283
:10074000BF92CF92DF92EF92FF926B017C01D0DFDC
:100750004B015C01C114D104E104F104E9F0C8DFEC
:10076000DC01CB0188199909AA09BB09883E93408D
:10077000A105B10578F321E0C21AD108E108F1081A
:1007800088EE880E83E0981EA11CB11CC114D10410
:10079000E104F10421F7DECFFF90EF90DF90CF90DE
:1007A000BF90AF909F908F900895FC0120E030E0C3
:1007B00090E04191842F82958F70982721303105E8
:1007C00011F04F7094272F5F3F4F2A30310589F782
:1007D000892F089578D36115710579F0FB01019097
:1007E0000020E9F73197AF01461B570BDC01ED9173
:1007F000FC910280F381E02D199480E090E008954F
:10080000CF93DF93BC0185E793E0E5DFEC0160E384
:1008100072E085E793E0DFDF8C0F9D1FDF91CF91C2
:1008200008954F925F926F927F92EF92FF920F9393
:100830001F93CF93DF93CDB7DEB7A1970FB6F89490
:10084000DEBF0FBECDBF7C01FA01CB0119A2223061
:1008500008F42AE08E010F5D1F4F422E512C612CAF
:10086000712CBF01A301920132D3F901CA010150D9
:1008700011096A3014F4605D01C0695CD8016C93A1
:10088000232B242B252B69F7B801C701A4DFA196E0
:100890000FB6F894DEBF0FBECDBFDF91CF911F9191
:1008A0000F91FF90EF907F906F905F904F90089521
:1008B0001F920F920FB60F9211240BB60F922F9327
:1008C0003F934F935F936F937F938F939F93AF93D8
:1008D000BF93EF93FF9388ED92E02CDEFF91EF91B1
:1008E000BF91AF919F918F917F916F915F914F9148
:1008F0003F912F910F900BBE0F900FBE0F901F9046
:1009000018951F920F920FB60F9211240BB60F92EB
:100910002F933F934F935F936F937F938F939F9307
:10092000AF93BF93EF93FF9388ED92E0AADDFF9121
:10093000EF91BF91AF919F918F917F916F915F9157
:100940004F913F912F910F900BBE0F900FBE0F90C4
:100950001F9018951F920F920FB60F9211240BB68D
:100960000F922F933F934F935F936F937F938F9348
:100970009F93AF93BF93EF93FF9385E793E0DADD07
:10098000FF91EF91BF91AF919F918F917F916F9167
:100990005F914F913F912F910F900BBE0F900FBE23
:1009A0000F901F9018951F920F920FB60F9211245F
:1009B0000BB60F922F933F934F935F936F937F9359
:1009C0008F939F93AF93BF93EF93FF9385E793E04C
:1009D00058DDFF91EF91BF91AF919F918F917F91E2
:1009E0006F915F914F913F912F910F900BBE0F90A0
:1009F0000FBE0F901F9018951F920F920FB60F9277
:100A000011242F933F938F939F93AF93BF93809124
:100A1000C9029091CA02A091CB02B091CC02309150
:100A2000C40223E0230F2D3720F40196A11DB11D30
:100A300005C026E8230F0296A11DB11D2093C40214
:100A40008093C9029093CA02A093CB02B093CC02C8
:100A50008091C5029091C602A091C702B091C802D0
:100A60000196A11DB11D8093C5029093C602A0936B
:100A7000C702B093C802BF91AF919F918F913F91F0
:100A80002F910F900FBE0F901F901895E8EDF2E098
:100A90001382128248EE53E060E070E04483558395
:100AA0006683778385E192E09183808325E331E05B
:100AB0003587248724E331E03787268720E331E038
:100AC000318B208B21E331E0338B228B22E331E029
:100AD000358B248B26E331E0378B268B118E128EDB
:100AE000138E148EE5E7F3E013821282448355835C
:100AF000668377839183808385EC90E095878487F4
:100B000084EC90E09787868780EC90E0918B808BD7
:100B100081EC90E0938B828B82EC90E0958B848BC0
:100B200086EC90E0978B868B118E128E138E148E2E
:100B3000E2E1F4E01682178210861186128613868F
:100B40001486158616861786108A118A128A138AC9
:100B5000148A158A0895CF93DF93CDB7DEB7A69791
:100B60000FB6F894DEBF0FBECDBF789484B5826017
:100B700084BD84B5816084BD85B5826085BD85B541
:100B8000816085BD80916E00816080936E001092BF
:100B9000810080918100826080938100809181003A
:100BA00081608093810080918000816080938000CB
:100BB0008091B10084608093B1008091B000816029
:100BC0008093B00080919100826080939100809129
:100BD000910081608093910080919000816080936A
:100BE00090008091A10082608093A1008091A1007B
:100BF00081608093A1008091A00081608093A0001B
:100C00008091210182608093210180912101816086
:100C10008093210180912001816080932001809147
:100C20007A00846080937A0080917A008260809359
:100C30007A0080917A00816080937A0080917A00B6
:100C4000806880937A001092C1001092560410922E
:100C500057041092580410925904109214041092E0
:100C60001504109216041092170460ED77E080E0EE
:100C700090E063DD85E793E09093550480935404FE
:100C800040E051EE60E070E0F2DA2FB7F894809126
:100C9000C9029091CA02A091CB02B091CC022FBFA1
:100CA0008093140490931504A0931604B093170432
:100CB00061E272E080915404909155048CDD6AE009
:100CC00070E080E090E039DD81E08093280440E02E
:100CD00051EE60E070E085E793E0C9DAEFE8F1E01B
:100CE0002491E9E4F1E08491882399F090E0880F61
:100CF000991FFC01E85FFE4FA591B491FC01EE5DE8
:100D0000FE4F859194918FB7F894EC91E22BEC9380
:100D10008FBF81E011DB68EE73E080E090E00DDDD5
:100D200080E00ADB83E392E06BDD40E659E060E0BF
:100D300070E088ED92E09BDA9AE0B92E8E01045EB5
:100D40001F4F4E0126E2820E911C7E0182E1E80EC9
:100D5000F11C23E6522E30EF632E45E2742E51E152
:100D6000A52E81E0E9DA64E670E080E090E0E5DC61
:100D700080E0E2DA8091D702882309F466C01092FD
:100D8000D702F8012B2D11922A95E9F7EDECF2E04C
:100D90006801D80181918D9382E0E73DF807D1F792
:100DA00068E472E085E793E016DDF60141916F019A
:100DB00050E060E070E02AE085E793E032DD67E52F
:100DC00072E085E793E007DDC814D90471F782E388
:100DD00092E016DD69E572E085E793E0FCDCC8018E
:100DE000E4DC9D8D9F70891303C08DE692E002C004
:100DF00081E792E005DD64E772E085E793E0EBDCF4
:100E000038A1432F50E060E070E02AE085E793E0EE
:100E10003EA307DD60E372E085E793E0DCDC3EA102
:100E20003F3F11F0333689F483E892E0E9DC2C8D02
:100E3000822F8C71843049F430E085E03595279518
:100E40008A95E1F72130310511F025DC8ACF89A19F
:100E50008111FBCF8CE992E0D3DC8E8D9F8DF70161
:100E60002B2D11922A95E9F75D8A9E8B6B8A807FE4
:100E70008C8B81E08F8B188E7A8AC70196DC806F0D
:100E80008B8BE0E0F2E0DE0111968A2D01900D924D
:100E90008A95E1F7F701DE01159681918D93E017B0
:100EA000F107D9F741E150E0BE016F5F7F4F88ED58
:100EB00092E0BCDACACFEE0FFF1F881F8BBF0790EE
:100EC000F691E02D199481E090E0F89422C0A1E21F
:100ED0001A2EAA1BBB1BFD010DC0AA1FBB1FEE1FB4
:100EE000FF1FA217B307E407F50720F0A21BB30BFF
:100EF000E40BF50B661F771F881F991F1A9469F77B
:100F000060957095809590959B01AC01BD01CF01D6
:060F10000895F894FFCFE4
:100F1600AAAAAAC5000000000000000000005C3A72
:100F26003A00000000BB0216027C025A026E020161
:100F360003564D4450565F317C315F564D445056F2
:100F46000D0A004D65676120726164696F207465E2
:100F5600737420696E6974005061636B65742063F5
:100F66006F6E74656E743A2000436865636B7375C3
:100F76006D2069732076616C69643F200079657322
:100F8600006E6F0064657374696E6174696F6E20BC
:100F96003D20007061636B65742069732072656C17
:100FA6006576616E7420746F206D650052656365A9
:100FB600697665642070696E67207061636B65741D
:100FC60020746F206D652C2073656E6420706F6EC3
:020FD6006700B2
:00000001FF
