:1000000007C1000033C1000031C100002FC1000052
:100010002DC100002BC1000029C1000027C1000034
:1000200025C1000023C1000021C100001FC1000044
:100030001DC100001BC1000019C1000017C1000054
:1000400015C1000013C1000011C100000FC1000064
:100050000DC100000BC1000009C10000C6C40000B2
:1000600005C1000099C400006EC40000FFC000007C
:10007000FDC00000FBC00000F9C00000F7C0000098
:10008000F5C00000F3C00000F1C00000EFC00000A8
:10009000EDC00000EBC00000E9C00000E7C00000B8
:1000A000E5C00000E3C00000E1C00000DFC00000C8
:1000B000DDC00000DBC00000D9C00000D7C00000D8
:1000C000D5C00000D3C00000D1C00000CFC00000E8
:1000D000CDC00000CBC000000DC40000E2C3000092
:1000E000C5C00000C701CA01B901BD01C1010102BB
:1000F000CE01D201D801DC01E001E601EA01EE0106
:100100000102F401F801FC01000021002400270095
:100110002A002D0030003300010100000401070116
:100120000A0100002200250028002B002E003100CB
:10013000340002010000050108010B010505050559
:10014000070508080808020202020A0A080804044F
:10015000040401010101010101010303030303037D
:100160000303040707070C0C0C0C0C0C0C0C02020C
:10017000020206060606060606060B0B0B0B0B0B09
:100180000B0B010210202008081020401020408096
:10019000020102010804020101020408102040804B
:1001A00080402010080402018004020180402010D9
:1001B0000804020108040201010204081020408022
:1001C000010204081020408000000A0B02090C0DF7
:1001D0000E080703040100000000000000000000FA
:1001E000000000000000000000000000000000000F
:1001F00000000000121110000000000000000000CC
:1002000000000000000000000000000000003F05AA
:1002100011241FBECFEFD1E2DEBFCDBF00E00CBF87
:1002200012E0A0E0B2E0E8EAF0E100E00BBF02C0BB
:1002300007900D92A438B107D9F724E0A4E8B2E002
:1002400001C01D92A432B207E1F711E0C8E0D1E08D
:1002500000E005C021970109802FFE01F5D6C730C7
:10026000D10780E00807B1F76FD41CC7C9CECF9281
:10027000DF92EF92FF920F931F93CF93DF93EC01E6
:100280006A017B01E889F98982E080834115514E3A
:1002900061057105A9F060E079E08DE390E0A701C8
:1002A0009601DED689019A0101501109210931090F
:1002B0003695279517950795980101151041A0F0DF
:1002C000E889F989108260E874E88EE190E0A7017E
:1002D0009601C6D6DA01C9010197A109B109B695FF
:1002E000A795979587959C01EC85FD853083EE85D4
:1002F000FF852083188EEC89FD8986E08083EA895A
:10030000FB89808180618083EA89FB8980818860A4
:100310008083EA89FB89808180688083EA89FB8900
:1003200080818F7D8083DF91CF911F910F91FF900E
:10033000EF90DF90CF900895CF93C82FE5EDF1E0D7
:100340004491EFE8F1E02491E9E4F1E094919923FC
:1003500009F46AC0442309F454C050E0FA0131970B
:10036000E231F10508F04DC08827EE58FF4F8F4F5E
:100370006BC6809180008F7707C0809180008F7D51
:1003800003C080918000877F809380003AC084B54D
:100390008F7702C084B58F7D84BD33C08091B0005B
:1003A0008F7703C08091B0008F7D8093B00029C00B
:1003B000809190008F7707C0809190008F7D03C05F
:1003C00080919000877F809390001BC08091A00057
:1003D0008F7707C08091A0008F7D03C08091A0001F
:1003E000877F8093A0000DC0309120013F7707C028
:1003F000309120013F7D03C030912001377F309341
:100400002001E92FF0E0EE0FFF1FEE5DFE4FA591FA
:10041000B4918FB7F894EC91C11103C020952E23AD
:1004200001C02E2B2C938FBFCF910895CF92DF92D6
:10043000EF92FF920F931F93CF93DF936C017A019A
:100440008B01C0E0D0E0CE15DF0589F0D8016D91B9
:100450008D01D601ED91FC910190F081E02DC60156
:100460001995892B11F47E0102C02196ECCFC701AA
:10047000DF91CF911F910F91FF90EF90DF90CF9080
:100480000895FC01A089B1898C91A689B78982FD64
:100490000FC09C91818D8F5F8F73228D821749F0E1
:1004A000218DDF01A20FB11D5D969C93818F089570
:1004B0008C910895FC01918D828D981761F0828D49
:1004C000DF01A80FB11D5D968C91928D9F5F9F7388
:1004D000928F90E008958FEF9FEF0895FC01918D2A
:1004E000828D981731F0828DE80FF11D858D90E097
:1004F00008958FEF9FEF0895FC01918D228D892F34
:1005000090E0805C9F4F821B91098F73992708951B
:1005100082EA92E0F1DF21E0892B09F420E0822FCA
:1005200008958FE393E0E8DF21E0892B09F420E0D0
:10053000822F0895FC01848DDF01A80FB11DA35AFD
:10054000BF4F2C91848D90E001968F739927848FF3
:10055000A689B7892C93A089B1898C9180648C93EA
:10056000938D848D981306C00288F389E02D8081D5
:100570008F7D80830895EF92FF920F931F93CF9307
:10058000DF93EC0181E0888F9B8D8C8D981305C0E3
:10059000E889F989808185FD23C0F62E0B8D10E056
:1005A0000F5F1F4F0F731127E02E8C8DE8120BC0C9
:1005B0000FB607FCFACFE889F989808185FFF5CF6E
:1005C000CE01B8DFF2CF8B8DFE01E80FF11DE35AAB
:1005D000FF4FF0820B8FEA89FB898081806207C020
:1005E000EE89FF896083E889F9898081806480834E
:1005F00081E090E0DF91CF911F910F91FF90EF90FC
:100600000895CF93DF93EC01888D8823C1F0EA89A8
:10061000FB89808185FD05C0A889B9898C9186FDFB
:100620000EC00FB607FCF5CF808185FFF2CFA889F9
:10063000B9898C9185FFEDCFCE017CDFE8CFDF91CA
:10064000CF910895CF93C1E082EA92E055DF892BE4
:1006500001F182EA92E02EDF853C19F4C093850215
:10066000F3CF90918502992379F38C3539F4109268
:100670008502C093990210928402E6CF9091840281
:10068000E92FF0E0E157FD4F80839F5F9093840254
:10069000DBCFCF91089580E090E0892B19F041DF06
:1006A00081111CC080E090E0892B41F080E090E057
:1006B000892B21F00E940000811113C080E090E09E
:1006C000892B41F080E090E0892B21F00E9400000E
:1006D00081110AC01DDF81110AC008950E94000027
:1006E000E1CF0E940000EACF0E940000F3CFAACF22
:1006F0003FB7F89480918B0290918C02A0918D026B
:10070000B0918E0226B5A89B05C02F3F19F0019627
:10071000A11DB11D3FBFBA2FA92F982F8827820F87
:10072000911DA11DB11DBC01CD0142E0660F771FD7
:10073000881F991F4A95D1F708958F929F92AF9283
:10074000BF92CF92DF92EF92FF926B017C01D0DFDC
:100750004B015C01C114D104E104F104E9F0C8DFEC
:10076000DC01CB0188199909AA09BB09883E93408D
:10077000A105B10578F321E0C21AD108E108F1081A
:1007800088EE880E83E0981EA11CB11CC114D10410
:10079000E104F10421F7DECFFF90EF90DF90CF90DE
:1007A000BF90AF909F908F9008952FB7F89460916D
:1007B0008702709188028091890290918A022FBFEE
:1007C00008954AD46115710579F0FB01019000206C
:1007D000E9F73197AF01461B570BDC01ED91FC9116
:1007E0000280F381E02D199480E090E008954F920B
:1007F0005F926F927F92EF92FF920F931F93CF932E
:10080000DF93CDB7DEB7A1970FB6F894DEBF0FBE6A
:10081000CDBF7C01FA01CB0119A2223008F42AE0F5
:100820008E010F5D1F4F422E512C612C712CBF0188
:10083000A301920115D4F901CA01015011096A30CE
:1008400014F4605D01C0695CD8016C93232B242BE8
:10085000252B69F7B801C701B5DFA1960FB6F8944B
:10086000DEBF0FBECDBFDF91CF911F910F91FF90E3
:10087000EF907F906F905F904F9008950F931F932C
:10088000CF93DF93EC019EDF8C016FE172E0CE012C
:1008900099DF800F911FDF91CF911F910F910895E4
:1008A00091CF1F920F920FB60F9211240BB60F9299
:1008B0002F933F934F935F936F937F938F939F9368
:1008C000AF93BF93EF93FF9382EA92E033DEFF9101
:1008D000EF91BF91AF919F918F917F916F915F91B8
:1008E0004F913F912F910F900BBE0F900FBE0F9025
:1008F0001F9018951F920F920FB60F9211240BB6EE
:100900000F922F933F934F935F936F937F938F93A8
:100910009F93AF93BF93EF93FF9382EA92E0B1DD91
:10092000FF91EF91BF91AF919F918F917F916F91C7
:100930005F914F913F912F910F900BBE0F900FBE83
:100940000F901F9018951F920F920FB60F921124BF
:100950000BB60F922F933F934F935F936F937F93B9
:100960008F939F93AF93BF93EF93FF938FE393E0A6
:10097000E1DDFF91EF91BF91AF919F918F917F91B9
:100980006F915F914F913F912F910F900BBE0F9000
:100990000FBE0F901F9018951F920F920FB60F92D7
:1009A00011240BB60F922F933F934F935F936F9346
:1009B0007F938F939F93AF93BF93EF93FF938FE3B7
:1009C00093E05FDDFF91EF91BF91AF919F918F9188
:1009D0007F916F915F914F913F912F910F900BBE3F
:1009E0000F900FBE0F901F9018951F920F920FB689
:1009F0000F9211242F933F938F939F93AF93BF93A5
:100A00008091870290918802A0918902B0918A0218
:100A10003091860223E0230F2D3720F40196A11D8B
:100A2000B11D05C026E8230F0296A11DB11D20931C
:100A300086028093870290938802A0938902B093E4
:100A40008A0280918B0290918C02A0918D02B091CC
:100A50008E020196A11DB11D80938B0290938C0292
:100A6000A0938D02B0938E02BF91AF919F918F9111
:100A70003F912F910F900FBE0F901F901895E2EAB3
:100A8000F2E01382128248EE53E060E070E04483AB
:100A900055836683778384E092E09183808325E3A6
:100AA00031E03587248724E331E03787268720E348
:100AB00031E0318B208B21E331E0338B228B22E339
:100AC00031E0358B248B26E331E0378B268B118E7A
:100AD000128E138E148EEFE3F3E01382128244839E
:100AE0005583668377839183808385EC90E0958737
:100AF000848784EC90E09787868780EC90E0918BE8
:100B0000808B81EC90E0938B828B82EC90E0958BD4
:100B1000848B86EC90E0978B868B118E128E138ED1
:100B2000148EECEDF3E01682178210861186128681
:100B300013861486158616861786108A118A128ADD
:100B4000138A148A158A0895CF93DF93CDB7DEB741
:100B500062970FB6F894DEBF0FBECDBF789484B510
:100B6000826084BD84B5816084BD85B5826085BDA9
:100B700085B5816085BD80916E00816080936E0037
:100B80001092810080918100826080938100809129
:100B900081008160809381008091800081608093DA
:100BA00080008091B10084608093B1008091B0009A
:100BB00081608093B0008091910082608093910069
:100BC000809191008160809391008091900081607C
:100BD000809390008091A10082608093A100809119
:100BE000A10081608093A1008091A000816080932A
:100BF000A0008091210182608093210180912101D8
:100C00008160809321018091200181608093200187
:100C100080917A00846080937A0080917A0082606B
:100C200080937A0080917A00816080937A0080912D
:100C30007A00806880937A001092C100109220049C
:100C40001092210410922204109223041092DE03C9
:100C50001092DF031092E0031092E10360ED77E061
:100C600080E090E06ADD8FE393E090931F0480932F
:100C70001E0440E051EE60E070E0F9DA96DD60932A
:100C8000DE037093DF038093E0039093E10360E160
:100C900072E080911E0490911F0402DE6AE070E011
:100CA00080E090E04ADD81E08093F20340E051EE85
:100CB00060E070E08FE393E0DADAEFE8F1E02491AE
:100CC000E9E4F1E08491882399F090E0880F991F7E
:100CD000FC01E85FFE4FA591B491FC01EE5DFE4F73
:100CE000859194918FB7F894EC91E22BEC938FBFA0
:100CF00081E022DB68EE73E080E090E01EDD80E0C2
:100D00001BDB62E272E08FE393E0B8DD40E659E07E
:100D100060E070E082EA92E0AADA44EF442E5524C3
:100D20005394612C712C8E01025F1F4F5DE0252EC4
:100D30009E012F5F3F4F590165EC362E7CE5872ED3
:100D4000E1E19E2E32DD672B682B692B39F42DDD16
:100D5000623071058105910508F4F3C026DD6093CA
:100D60009E0270939F028093A0029093A102209113
:100D70009A0230919B0240919C0250919D02621711
:100D800073078407950740F460939A0270939B025F
:100D900080939C0290939D02C0909A02D0909B02F7
:100DA000E0909C02F0909D029B01AC012C193D0942
:100DB0004E095F0969017A013AEFC316D104E104D3
:100DC000F10408F4BEC060939A0270939B02809372
:100DD0009C0290939D024092EA035092EB03609232
:100DE000EC037092ED031092EE031092EF03109259
:100DF000F0031092F1038091E2039091E303A0913C
:100E0000E403B091E5038093E6039093E703A09396
:100E1000E803B093E903C9DC6093E2037093E30352
:100E20008093E4039093E503C0DC6093DE0370934A
:100E3000DF038093E0039093E103B7DC6B017C0157
:100E400067E372E080911E0490911F0429DD2AE07F
:100E500041E050E060E070E080911E0490911F043A
:100E6000C6DC6EE372E080911E0490911F0418DDD1
:100E70002AE0B701A60180911E0490911F04B7DCFF
:100E800060E472E080911E0490911F0409DD80915E
:100E9000E2039091E303A091E403B091E503B7016D
:100EA000A601481B590B6A0B7B0B2AE080911E049C
:100EB00090911F049CDC60E472E080911E0490918C
:100EC0001F04EEDC4091E2035091E3036091E403E0
:100ED0007091E5038091E6039091E703A091E80308
:100EE000B091E903481B590B6A0B7B0B2AE08091F8
:100EF0001E0490911F047BDC62E472E080911E046A
:100F000090911F04CDDC51DCAB01BC012AE0809143
:100F10001E0490911F046BDC64E472E080911E0457
:100F200090911F04ABDC62E070E080E090E005DCB3
:100F30003CDC6093E2037093E3038093E4039093BB
:100F4000E50381E0F9D964E670E080E090E0F5DB4C
:100F500080E0F2D980919902882309F473C06BE490
:100F600072E08FE393E09CDC3FE8C32E32E0D32EA7
:100F7000F60141916F0150E060E070E02AE08FE3FC
:100F800093E035DC6BE572E08FE393E089DCF9E90F
:100F9000CF16F2E0DF0661F761E272E08FE393E0E3
:100FA0006DDC40918F02842F90E024E09595879529
:100FB0002A95E1F7D090920250919302F80125E032
:100FC00011922A95E9F72FEF280F243018F05F3F90
:100FD00069F40EC0A4E9B2E0F8019801280F391FA6
:100FE000E217F307A1F36D916193FACF533641F500
:100FF00040FF26C0019721F58E85811121C06DE546
:1010000072E08FE393E03ADCF501222D11922A95EC
:10101000E9F73AEA39833A833B833C828B864AE399
:101020004C874D879D8280EF8E8383E68887D986A3
:1010300081E08A874DE050E0B50182EA92E0F6D97E
:101040001092990228DB7ECEEE0FFF1F881F8BBF08
:101050000790F691E02D199481E090E0F89422C079
:10106000A1E21A2EAA1BBB1BFD010DC0AA1FBB1FAC
:10107000EE1FFF1FA217B307E407F50720F0A21B1E
:10108000B30BE40BF50B661F771F881F991F1A948B
:1010900069F760957095809590959B01AC01BD01B5
:0810A000CF010895F894FFCF81
:1010A80000000000BB0216027C025A026E02010315
:1010B800564D4450565F317C315F564D4450560D65
:1010C8000A004D65676120726164696F20746573F9
:1010D8007420696E697400564D4450455F003A3279
:1010E8003A007C005F564D4450450072656365695F
:1010F800766564207061636B65743A20005265639D
:1011080065697665642070696E67207061636B65D8
:101118007420746F206D652C2073656E6420706F69
:041128006E670000EE
:00000001FF
